:020000040800F2
:10000000D0BB0120BD0200083B6D0008633700082B
:10001000396D00080D0E0008F5760008000000009C
:1000200000000000000000000000000069710008EE
:100030000F0E0008000000003B6E0008F171000880
:10004000D7020008D7020008D7020008C56F0008D1
:10005000D7020008D7020008D7020008D70200081C
:10006000D7020008D7020008D7020008D70200080C
:10007000D7020008D7020008D7020008D7020008FC
:10008000D7020008D7020008D7020008D7020008EC
:10009000D7020008D7020008D7020008D7020008DC
:1000A000D7020008D7020008D7020008D7020008CC
:1000B000D70200084972000881720008D7020008C0
:1000C000D7020008D7020008D7020008D7020008AC
:1000D000D7020008B1760008D7020008D70200084E
:1000E000D7020008A56E0008D7020008D702000852
:1000F000D7020008D7020008D7020008D70200087C
:10010000D7020008D7020008D7020008D70200086B
:10011000D7020008D7020008D7020008D70200085B
:10012000D7020008D7020008D7020008D70200084B
:10013000D70200085D0E0008D7020008D7020008A9
:10014000D7020008D7020008D7020008D70200082B
:10015000D7020008D7020008D7020008D70200081B
:10016000D7020008D7020008D7020008D70200080B
:10017000D7020008D7020008D702000800000000DC
:10018000D7020008D7020008D7020008D7020008EB
:10019000D7020008D7020008D7020008D7020008DB
:1001A000D7020008D7020008D702000800F002F8C2
:1001B00000F06DF80AA090E8000C82448344AAF194
:1001C0000107DA4501D100F062F8AFF2090EBAE892
:1001D0000F0013F0010F18BFFB1A43F0010318477B
:1001E000841A0300A41A03000A444FF0000C10F80C
:1001F000013B13F0070408BF10F8014B1D1108BFA5
:1002000010F8015B641E05D010F8016B641E01F844
:10021000016BF9D113F0080F1EBF10F8014BAD1C94
:100220000C1B09D16D1E58BF01F801CBFAD505E0B2
:1002300014F8016B01F8016B6D1EF9D59142D6D30C
:10024000704700000023002400250026103A28BF34
:1002500078C1FBD8520728BF30C148BF0B60704738
:10026000642900F0BD80752900F0BA80782900F07B
:10027000F380632900F0F583732900F0FA830020EE
:1002800070471FB513F02BFA1FBD10B510BD00F05D
:100290000BFC1146FFF7F5FF0CF0ECFA00F029FC1F
:1002A00003B4FFF7F2FF03BC07F02CFA30BF72B6BD
:1002B000704762B6704780F30888704709488047E6
:1002C00009480047FEE7FEE7FEE7FEE7FEE7FEE738
:1002D000FEE7FEE7FEE7FEE704480549054A064B50
:1002E00070470000F5710008AD010008D0B501208D
:1002F000D0BB0120D0B70120D0B70120704700004B
:100300000FB4044910B503AA029800F0B7FB10BC63
:100310005DF814FB200000200FB41CB5074B06AAA3
:100320007B4469460090059800F079FB00206946FF
:1003300000F088FB1CBC5DF814FB000021070000E6
:1003400070B5044685690068C10601D5302600E015
:100350002026C00707D070BDD4E901213046904760
:10036000206A401C20626D1EF6D570BD70B5044633
:1003700085690078C00707D170BDD4E9012120202C
:100380009047206A401C20626D1EF6D570BD70B586
:100390000C460546012A05D02878800600D5EA6972
:1003A000002302E0012305E05B1C934202D2E05CE3
:1003B0000028F9D1A869E618C01AA861286A18446B
:1003C00028622846FFF7BCFF04E0D5E9012114F8B4
:1003D000010B9047B442F8D32846FFF7C7FF70BD22
:1003E0002DE9F0410646002410687529314616A50E
:1003F00010D0AFF30080002802DA404213A507E0D6
:1004000031688A0701D512A502E0490704D511A574
:10041000012401E0AFF3008000210A2206F1240745
:1004200009E0B0FBF2FCB0FBF2F302FB1C00303041
:1004300078541846491C0028F3D123462A463046F2
:10044000BDE8F04100F08CBA000000002D00000073
:100450002B0000002000000070B504460D46214628
:100460001068AFF300802188090502D50F4A7A444D
:1004700002E00E4A7A440E32002104F1240305E022
:1004800000F00F060009965D5E54491C0028F7D164
:1004900020780023000704D5702D02D009B1022373
:1004A00011322046BDE8704000F05ABADA14030059
:1004B0002DE9F05F894604464FF0000ADFF874B179
:1004C000FB44C0F820A02046E1688847002874D08B
:1004D000252806D0D4E901219047206A401C2062DB
:1004E000F1E700265F462046E16888472028054658
:1004F00007DB312D05D2781910F8200C08B106431E
:10050000F1E7B00701D526F00406C4F81CA00027C7
:10051000C4F818A02A2D09D0284607F0ECF838B303
:1005200004EB8708303DC8F8185019E059F8041B4F
:10053000204604EB87029161E1688847012F054658
:1005400018D1E069002820DA26F020061DE0D8F84E
:10055000180000EB800005EB40003038C8F81800A8
:100560002046E1688847054607F0C5F80028EED127
:10057000012F0AD02E2D08D12046E16888477F1C24
:100580000546022F46F02006C4DBA069002803DAE6
:10059000404246F00106A061F00701D026F01006A7
:1005A0006C2D0BD0682D09D04C2D39D06A2D35D04B
:1005B000742D35D07A2D33D016E038E0E1682F461F
:1005C00020468847B842054609D16C2F26D04FF403
:1005D0008060E168064320468847054604E06C2FAA
:1005E0001AD04FF4807006430DB3A5F141001928CD
:1005F00002D8203546F400664A4629462046266041
:100600004E46FFF72DFE80B101280BD0F61D26F0D7
:10061000070000F1080956E74020E4E78020D8E70A
:100620000020D6E706F104094DE7284652E7206A84
:10063000BDE8F09FB0140300401ECAB210F8011FBD
:100640008A4202D00029F9D10020704730B5054612
:100650000B462A4613F8014B12F8010B08B1A042D1
:10066000F8D01CB1002802D06D1CF1E7284630BD3F
:1006700040EA010310B59B070FD1042A0DD310C81F
:1006800008C9121F9C42F8D020BA19BA884201D971
:10069000012010BD4FF0FF3010BD1AB1D30703D0B9
:1006A000521C07E0002010BD10F8013B11F8014B6F
:1006B0001B1B07D110F8013B11F8014B1B1B01D18B
:1006C000921EF1D1184610BD10B5431C02E010F87F
:1006D000011B71B18107FAD14FF0013202C88C1AA7
:1006E0008C4314EAC211F9D0C01A0A0603D0C01E06
:1006F00010BDC01A10BD0A0401D0801E10BD090231
:10070000FCD0401E10BD40EA010370B59B072ED1FE
:100710004FF00136042A2AD308C810C99D1B9D43F7
:10072000121F15EAC61517D0D8B2E1B2401A50EA26
:10073000056110D198B2A1B2401A50EA05410AD120
:1007400023F07F4024F07F41401A50EA052102D176
:10075000180EA0EB146070BDA342DBD018BA21BA0A
:10076000884201D9012070BD4FF0FF3070BD0AB939
:10077000002070BD10F8013B11F8014B63B1A3429A
:100780000AD1521E08D010F8013B11F8014B1BB1E1
:10079000A34201D1521EEDD1181B70BD032A40F2B5
:1007A000308010F0030C00F0158011F8013BBCF113
:1007B000020F624498BF11F801CB00F8013B38BF2B
:1007C00011F8013BA2F1040298BF00F801CB38BF39
:1007D00000F8013B11F0030300F02580083AC0F057
:1007E000088051F8043B083A51F804CBA0E80810FF
:1007F000F5E7121D5CBF51F8043B40F8043BAFF332
:100800000080D20724BF11F8013B11F801CB48BF8B
:1008100011F8012B24BF00F8013B00F801CB48BFC1
:1008200000F8012B704710B5203AC0F00B80B1E8FA
:100830001850203AA0E81850B1E81850A0E8185015
:10084000BFF4F5AF5FEA027C24BFB1E81850A0E81E
:10085000185044BF18C918C0BDE810405FEA827C38
:1008600024BF51F8043B40F8043B08BF7047D2074F
:1008700028BF31F8023B48BF11F8012B28BF20F8F0
:10088000023B48BF00F8012B70474FF0000200B553
:10089000134694469646203922BFA0E80C50A0E8A3
:1008A0000C50B1F12001BFF4F7AF090728BFA0E851
:1008B0000C5048BF0CC05DF804EB890028BF40F81D
:1008C000042B08BF704748BF20F8022B11F0804F5F
:1008D00018BF00F8012B70474FF0013C50F8042B73
:1008E00051F8043B9A4221D1A2EB0C03934313EA43
:1008F000CC1317D150F8042B51F8043B9A4215D170
:10090000A2EB0C03934313EACC130BD150F8042B46
:1009100051F8043B9A4209D1A2EB0C03934313EA2A
:10092000CC13DBD04FF00000704700BFD01A01BAE3
:10093000B1FA81F101F0180122FA01F0CB40C1F1C6
:100940002001DBB2C0B2C01A2CFA01F3D11A9143D4
:1009500011EAC311E6D1704770477047704770477E
:100960002DE9F0470D4699469246044600F12408C9
:100970000168880604D5E06921F01001216000E0DB
:100980000120A84201DD471B00E00027A1697A1978
:1009900002EB0900081AA0612078C00602D42046A4
:1009A000FFF7CEFC002608E0D4E901211AF8060082
:1009B0009047206A401C761C20624E45F4DB20786C
:1009C000C0060AD52046FFF7BBFC06E0D4E90121AA
:1009D00030209047206A401C2062381EA7F1010792
:1009E000F4DC07E0D4E9012118F805009047206AFB
:1009F000401C2062281EA5F10105F3DC2046FFF70C
:100A0000B5FC2078000602D50220BDE8F087012061
:100A1000FBE7000001694A1C02610878704700B5D5
:100A20008FB0CDE901310021059105497944CDE927
:100A3000031011466846FFF73BFD0FB000BD0000F4
:100A4000E5FFFFFF0A6802F8010B0A60704710B566
:100A5000436913B1AFF3008001E0FFF798FC012078
:100A600010BD127800F124010A7000224A700122A0
:100A7000EDE711684FF0FF32E9E70000074B70B572
:100A80000D467B44FFF7CBFF0446284600F008F8EC
:100A900010B14FF0FF3070BD204670BD579200007E
:100AA000007B00F080007047754600F02BF8AE46E2
:100AB00005006946534620F00700854618B020B56A
:100AC000FFF70AFCBDE820404FF000064FF000079A
:100AD0004FF000084FF0000B21F00701AC46ACE8E6
:100AE000C009ACE8C009ACE8C009ACE8C0098D4653
:100AF000704710B50446AFF300802046BDE81040B3
:100B0000FFF7CEBB0048704770B5012070B50446B2
:100B10000A21052000F0B2FB12F075FB9FED191BB6
:100B200053EC112B12F082FB12F040FB4FF47A7160
:100B3000B0FBF1F1C9B26FF07C0211FB02F200EBE5
:100B4000C2026423B2FBF3F2D2B24FF47A7311FB08
:100B500003F302EBC20505EB021503EB8505431B0E
:100B60000A26B3FBF6F303EB83063031303205EB94
:100B7000460521703033401B6270A3703030E07046
:100B800070BD00009A9999999999E93F4A4910B521
:100B9000D1F8042322F44032C1F80423D1F804230D
:100BA00043681A43C1F8042301684A6822F480723A
:100BB0004A6001684A68036942EA03224A600168A0
:100BC0004A6822F040724A6001684A6883681A43A2
:100BD0004A6001688A6822F400628A6001688A6853
:100BE000C3681A438A60C16A6FF07062D1420168BB
:100BF0008A6822F070628A6001688A680CD0C36AD1
:100C00001A438A6001688A6822F040528A6001684B
:100C10008A68036B1A4301E022F040528A6001683F
:100C20008A6822F002028A6001688A68836942EA5F
:100C300043028A60416A002901684A6815D042F47B
:100C400000624A6001684A6822F460424A600168B2
:100C50004B684FF46044826A94FAA4F4B4FA84F4C2
:100C6000521EA24013434B6002E022F400624A602D
:100C70000168CA6A22F47002CA620168CA6A038CF7
:100C80000E4C04EB03531A43CA6201688A6822F4CB
:100C900000728A6001688A68C36942EA43228A60F6
:100CA00001688A6822F480628A6001688A68406903
:100CB00042EA8020886010BD002001400000F0FF63
:100CC0002DE9F04116460F460A461D4600243146DE
:100CD00028A000F0A1FA401C21D00121002006F03C
:100CE00087F81AE056F8240022A1FFF7F5FD90B925
:100CF00055F8240021A1FFF7EFFD30B155F824008D
:100D000020A1FFF7E9FD10B105E0002100E001217D
:100D1000002006F06DF8641CE4B2BC42E2DB1B4C20
:100D20000121204601F0AEF818B9002006F044F881
:100D300028B10121204601F0A5F818B107E014A060
:100D4000BDE8F081002006F037F8012806D0012127
:100D5000204601F097F8012802D006E013A0EFE743
:100D6000002006F029F8012801D018A0E8E71FA00C
:100D7000E6E700004245455000000000424545506E
:100D80004F4E0000424545504F4646000004024089
:100D90002F53544D33325F4C45445F4F4E5F4245B5
:100DA00045505F4F4E2E7368746D6C002F53544D39
:100DB00033325F4C45445F4F4E5F424545505F4F75
:100DC00046462E7368746D6C000000002F53544D1E
:100DD00033325F4C45445F4F46465F424545505F66
:100DE0004F4E2E7368746D6C000000002F53544DED
:100DF00033325F4C45445F4F46465F424545505F46
:100E00004F46462E7368746D6C000000FEE7704715
:100E100038B50446006800F58050816941F48011BE
:100E20008161206800F5805080690090012000F009
:100E3000EDFB2068009900F58050816138BD0268A3
:100E40000021002A08DB0268120405D40268D205DA
:100E500002D50068C0F30D410846704710B5094C33
:100E600001E00BF003FCA06AFFF7E9FF0028F8D1CE
:100E700020684FF4803100F580504161402141618C
:100E800010BD0000D80400202DE9F041044621B136
:100E90004FF40060E060C000A060E0690026002818
:100EA00061D035462068402702683A490A40D4E9B3
:100EB00002131943294341F4007111430160206872
:100EC0000568012000F0A2FB2068056020684760EB
:100ED00020684568012000F099FB20684560206883
:100EE00086602068C660206881694FF641721140B3
:100EF00041F08001816120688569012000F086FB56
:100F0000206885612068C6612068C569012000F0FD
:100F10007DFB2068C561206800F5805081691E4A0C
:100F200011401E4A0A438261206800F5805085699D
:100F3000012000F06BFB206800F58050856120687F
:100F4000174900F580500160206800F58050056861
:100F5000012000F05BFB206800F580500560A0696F
:100F6000012803D009E04FF480659BE7206800F575
:100F70008050C1690B4A1143C16160690A4A818886
:100F800011640178D0F8010041EA00205064BDE806
:100F9000F08100000F8120FF233FDEF804002002D3
:100FA0008020C102400001000080024010B54FF4D3
:100FB000A07100200CF018F90A4CA021206000203C
:100FC0000CF012F9606043F6883100200CF00CF947
:100FD000A06041F6C45100200CF006F9E06000204A
:100FE00010BD00003400002070B5B3F5804F05D06F
:100FF0006FF0704140F82210002070BD50F8223090
:10100000084C2340D1E9004544EA05148D688E89D7
:101010002D0245EA064589692C430C431C4340F8E0
:101020002240E9E70000F0CFF0B50C6850F82450FA
:10103000194A1540D1E90123D1E903671A433E4318
:1010400032434E6932438E693243CE6932430E6A6F
:1010500032434E6A32438E6A3243CE6A3243CE6B9B
:1010600032430E6B32434E6B32432A43082B01D17D
:1010700042F0400240F824204A6BB2F5801F08D1AC
:101080000A6832B14FF480720A6104490268114360
:1010900001600020F0BD00008000E0FF00011000B2
:1010A000F0B500EB820253688E8903F04044D1E929
:1010B000003543EA05138D682D0245EA06452B43AA
:1010C0000E8A0D4D05EB065633430E7D6F0107EB7F
:1010D000066633438E693343234353600268D2026A
:1010E00007D54268098A22F4700205EB01511143C9
:1010F00041600020F0BD00000000F0FF30B5D1E9F4
:1011000001231A43D1E9033423431A434B690D6881
:101110001A438B691A43D1E90734012D496A0568DE
:101120006FF30E0505D01A4322430A432A43026097
:1011300008E0234329430B43416803606FF30E012A
:101140000A434260002030BD426942EA41014161E8
:1011500000207047F8B514460546D1E90002104357
:101160008A686FF01F03C96803EB421242EA41210B
:1011700008430090286100F08FFE064609E0601CDD
:1011800007D024B100F088FE801BA04201D90320C3
:10119000F8BDA8698006F2D40020F8BDF0B56FF064
:1011A0000F05D1E9003405EB04145B1E2E01234327
:1011B0008C682F0306EB04244FEA054C23430D8A69
:1011C0008E8ACC68097E4FF07F4E07EB05450CEB0D
:1011D00006560EEB0161012A0CD082683F1107EB25
:1011E000043423432B43334302F070420B43134335
:1011F00083600FE0C2682B430B4302F070428168AA
:10120000134301F070422103A1F580513143114392
:10121000C36081600020F0BD2DE9F04115460E4607
:101220000746002406E056F824103846FFF754FB22
:1012300030B1641CAC42F6DB4FF0FF30BDE8F0810A
:101240002046FBE71FB5694600900120019007206A
:10125000029000200390084800F06EF8064800F065
:1012600091F90A21044800F057F9034800F00EF9FB
:1012700004B080B210BD00005C0500202DE9F041F3
:1012800000250E4607462C4608E03846FFF7DAFFF1
:101290000544052006F050FA641CE4B2B442F4D3CD
:1012A000B5FBF6F080B2BDE8F081000010B50A2170
:1012B0001648FFF7E3FF00EE100AB8EE400A10EE02
:1012C000100A12F09BF99FED121B53EC112B11F039
:1012D000ADFF9FED111B53EC112B12F0A5F89FED04
:1012E000101B53EC112B11F0D9FD9FED0F1B53EC8C
:1012F000112B11F02BFD9FED0E1B53EC112B11F058
:1013000095FF11F023FF00B210BD00001200001085
:101310006666666666664A3F52B81E85EB51E83FD0
:101320007B14AE47E17A643F0000000000003940C2
:10133000000000000000594078B50024009490F8A7
:101340003C20012A19D0012280F83C200A68072598
:101350000368092A13D9DE680A3A02EB4202954073
:10136000AE43DE600A788B680A3A02EB4202934091
:101370000268D5682B43D36010E0022078BD1E6957
:1013800002EB42029540AE431E610A788B6802EB85
:1013900042029340026815692B4313614A681F2576
:1013A000072A13D203685E6B521E02EB820295403D
:1013B000AE435E630A8893B20A79521E02EB820240
:1013C00093400268556B2B43536327E003680D2A53
:1013D00012D21E6BD21F02EB82029540AE431E63F7
:1013E0000A8893B20A79D21F02EB82029340026804
:1013F000156B2B43136311E0DE6A0D3A02EB820298
:101400009540AE43DE620A8893B20A790D3A02EB48
:10141000820293400268D56A2B43D362174B02685D
:101420009A4208D10A68122A05D1D3F8042342F45B
:101430008002C3F8042302689A421BD1104D0A6847
:10144000AA4201D0112A15D1D3F8042342F4000294
:10145000C3F804230968A9420CD10A490A4A096859
:10146000B1FBF2F101EB8101490000E0491E00915E
:101470000029FBD180F83C40002078BD00200140CD
:10148000120000100000002040420F000068C06CF5
:10149000704770B5040004D094F83D00002510B1E9
:1014A00006E0012070BD84F83C50204600F00EF8A4
:1014B000022084F83D002046FFF768FB25640120E8
:1014C00084F83D0084F83C50002070BD104800B501
:1014D000026887B0002142F480720260006800F464
:1014E000807005900A481438026842F001020260D8
:1014F000006800F001000590202000900320CDE955
:1015000001016946034800F0CFFB07B000BD0000B1
:1015100044380240000002402DE9F04104460068D2
:101520000D4681684FF0000749050AD58068C0055F
:1015300007D5042084F83D0084F83C700120BDE804
:10154000F08100F0A9FC06460DE0681C0BD025B127
:1015500000F0A2FC801BA84205D9032084F83D00BE
:1015600084F83C70EBE7206800688007EDD594F8BC
:101570003D00252804D0152084F83D000020DEE73A
:101580003520F9E708B50022009290F83C100129B7
:101590000ED0012180F83C1090F83D10222909D08E
:1015A000122180F83D1001688B68DB0704D013E03E
:1015B000022008BD3221F4E78B6843F001038B6001
:1015C0000F49104B0968B1FBF3F101EB410100E059
:1015D000491E00910029FBD10B4980F83C20D1F82D
:1015E00004230068D20601D0884207D1816811F037
:1015F000405F03D1816841F080418160002008BDD7
:101600000000002040420F000020014031B500F0F2
:1016100043FC044600F040FC0099001B8842F9D3CB
:1016200038BD2DE9F04390F845500024012D0DD030
:101630004FF0010980F84590022580F8445044F2AB
:10164000F45C4FF000485F1E816216E00220BDE8A6
:10165000F08301EB4415C5F80080C4EBC41606EB1B
:10166000460602EB8606C5E901C6BC4203D205F177
:101670002006EE6000E0E960641C9C42E9D3026849
:1016800002F58052D16080F84490002180F8451026
:101690000846DCE72DE9F04390F845400025012C91
:1016A0000BD04FF0010C80F845C0022480F8444074
:1016B0004FF480195F1EC1621BE00220BDE8F08379
:1016C00001EB4514C4F80090C5EBC51606EB4606C1
:1016D00002EB8606A660C6691EB9266846F4400677
:1016E0002660BD4203D204F12006E66000E0E1601E
:1016F0006D1C9D42E4D3026802F58052116180F8AE
:1017000044C0002180F845100846D7E710B590F88E
:101710004510012913D0012380F84530022180F8BB
:101720004410816A0A680024002A27DB0A68D2056F
:1017300018D5826B521C8263012A02D002E002207B
:1017400010BD016341630A68C2F30D42121FC263F8
:10175000026B92680264C96840F8281F03774477D7
:10176000002010BD0A68920503D58363C0E90C14FC
:1017700002E0826B521C8263C968816200F8443FB8
:101780004470012010BD00002DE9FC414FF000061F
:1017900004000096B046019603D094F8440018B1B6
:1017A00007E00120BDE8FC8184F84560204600F098
:1017B000C5F85848016841F480410160006800F4B0
:1017C000804001905448016821F4000101600168E3
:1017D000226A11430160206800F58050016841F0E1
:1017E00001010160226802F580500168C907FCD13F
:1017F000106920F01C0500F0E7FF4849484A014401
:10180000914202D245F0080516E04649464A014495
:10181000914202D245F00C050EE04449444A01448D
:10182000914209D3434908444349884202D245F0D2
:10183000040501E045F01005206805616068012796
:1018400080B300F029FB42F2107501906A46012135
:10185000204600F0E5F800F01FFB0199401AA8426D
:1018600017D800984007F1D54FF480520021204648
:1018700000F0DFF980BB00F00FFB01906A46012108
:10188000204600F0CDF800F007FB0199401AA8426D
:1018900009D901212046FFF7F7FA04F8447F032015
:1018A00066707FE719E000988006E7D56A461F2139
:1018B000204600F0B5F878B90098C10603D54FF47A
:1018C0000061E16000E0E660400701D5A66019E034
:1018D0004FF48040A06015E00AE0E068A168C0080D
:1018E00040EA510082B20021204600F0A2F930B156
:1018F00001212046FFF7C8FA84F8447051E7FF2021
:10190000FFF784FE41462046FFF7BEFA84F8447094
:10191000002047E7443802400438014000D3CEFE9F
:10192000C0E1E40040F1E9FD40787D0100796CFC04
:10193000005A6202001F0AFA80F0FA02334800B52A
:10194000026887B0002142F000720260026802F073
:1019500000720592026842F080620260026802F042
:1019600080620592026842F000620260026802F042
:1019700000620592026842F001020260026802F011
:1019800001020592026842F002020260026802F05F
:1019900002020592026842F004020260026802F04C
:1019A00004020592026842F040020260006800F002
:1019B00040000590862000900220CDE9010103201F
:1019C00003900B2004906946114800F06DF94FF424
:1019D0000060009069460F4800F066F932200090E0
:1019E00069460D4800F060F94FF4C0400090694628
:1019F0000A4800F059F9002201213D2000F00AFCBC
:101A00003D2000F0FBFB07B000BD00003038024075
:101A1000000002400004024000080240001802409A
:101A20002DE9F84300260446009690F844009146BC
:101A300082281DD0822084F84400206802694FF675
:101A4000FF7502F01C03228A05EAC2221A434FF4F2
:101A5000F86303EA8111114321F0020141F001050D
:101A6000056100F019FA01274FF4803800900FE06B
:101A70000220BDE8F88300F00FFA0099401A4045B3
:101A800004D304F8447F03206670F2E720680569F8
:101A9000E807F0D12068406981B2C9F8001084F8E5
:101AA00044700020E5E7F8B5044690F845000128A9
:101AB00039D0012584F84550022084F8440020687C
:101AC0000026016841F0080101602068006800906C
:101AD0002846FFF79BFD2168009808602068016890
:101AE00041F0040101602068006800900120FFF7C8
:101AF0008DFD2168009808602046FFF789F920686D
:101B000000F58050816941F400518161206800F541
:101B10008050816941F00201816184F8445084F869
:101B200045600020F8BD0220F8BDF0B590F84530C2
:101B30000022012B11D0012780F84570022380F884
:101B40004430002559B1C46A2368002B0ADA1221F7
:101B500000F8441F45700120F0BD0220F0BD00F8E0
:101B6000447FF7E740F2F456B1420BD9B1FBF6FCE3
:101B7000B1FBF6F306FB1C1CBCF1000F00D05B1C94
:101B8000012B43D1226842F040522260C26AC1F365
:101B90000C015160C16A0A6842F000420A60C16AE1
:101BA000C968C16234E0D4F800C02CF0405CC4F8CD
:101BB00000C032B9C46AD4F800C04CF0805CC4F8EC
:101BC00000C0C46A66605C1EA24214D1C46AD4F824
:101BD00000C04CF0005CC4F800C0C3F10104C4EBC9
:101BE000C41404EB4404D0F82CC001EB8404C4F307
:101BF0000C04CCF80440C46AD4F800C04CF0004C8B
:101C0000C4F800C0C46A521CE468C4629A42CAD3D1
:101C1000016801F580514A69520705D504224A61DD
:101C2000016801F580514D6000F8447F4570002047
:101C3000F0BD2DE9F041044690F8440042281ED042
:101C4000422084F84400206803694FF6FF7603F0D1
:101C50001C05238A06EAC3232B434FF4F86505EAE3
:101C60008111194341F0030591B24161206805617A
:101C700000F012F9064601274FF480380FE00220E9
:101C8000BDE8F08100F008F9801B404505D304F859
:101C9000447F002060700320F2E720680569E807B0
:101CA000F0D184F84470EBE72DE9F84FDFF8A0910C
:101CB000002209F1040A0AF1040B4FF00F080BF19E
:101CC000040E01260B6896403340B34271D14C6834
:101CD000022C01D0122C11D1D40800EB84073D6AEC
:101CE0005407E40E08FA04FC25EA0C05D1F810C0EC
:101CF0000CFA04FC4CEA050CC7F820C00768540035
:101D0000032591F804C0A5400CF0030CAF430CFA76
:101D100004FC4CEA070CC0F800C04F68012F05D046
:101D2000022F03D0112F01D0122F11D18768D1F8C3
:101D30000CC0AF430CFA04FC4CEA070CC0F808C016
:101D40004768B7430E79C6F3001696403E43466097
:101D5000C668AE438D68A5403543C5604C68E40055
:101D60006FD53C4C256845F480452560246822F0F9
:101D7000030504F480440094374C2E19D6F80878F3
:101D80009407250F08FA05F4A743344CA04201D16B
:101D900000242EE0324CA04201D1012429E0314C34
:101DA000A04201D1022424E02F4CA04202D10324FE
:101DB0001FE046E02D4CA04201D1042419E02C4C38
:101DC000A04201D1052414E02A4CA04201D10624EE
:101DD0000FE0294CA04201D107240AE0274CA04281
:101DE00001D1082405E0264CA04201D1092400E0DD
:101DF0000A24AC403C43C6F80848D9F800404D4698
:101E00004E689C43F60300D51C432C60DAF8004072
:101E100055464E689C43B60300D51C432C60DBF846
:101E200000405D464E689C43F60200D51C432C6082
:101E3000DEF8004075464E689C43B60200D51C4350
:101E40002C60521C102AFFF43CAFBDE8F88F000054
:101E5000003C014044380240003001400000024094
:101E60000004024000080240000C02400010024042
:101E70000014024000180240001C024000200240F2
:101E8000002402400069084000D0012070470AB1D8
:101E9000816170470904FBE7014800687047000052
:101EA0001400002002480168491C016070470000CE
:101EB000140000200B4810B5016841F40071016066
:101EC000016841F480610160016841F48071016042
:101ED000052000F0BFF90F2000F006F800F08AF9A5
:101EE000002010BD003C024010B5044600F06CFC20
:101EF0004FF47A71B0FBF1F001F0C8F900222146ED
:101F0000501E00F087F9002010BD2DE9F041044675
:101F100090F8A00015460F4601281DD0012684F830
:101F2000A060022084F8A10005EB850000EBC5004D
:101F300004EB800034223830FEF775FC2A4639461F
:101F4000204604F02BFE2068466284F8A160002041
:101F500084F8A000BDE8F0810220FBE770B5040022
:101F600004D094F8A100002510B106E0012070BD56
:101F700084F8A050204600F06FF8022084F8A100F9
:101F80002068816921F070418161D4E90110014329
:101F9000D4E903021043014320688269114381613F
:101FA000206882682B490A408260A08A0204206867
:101FB0008368A6693343134383602068C2680A407C
:101FC000C260A08B02042068C368266A33431343AF
:101FD000C360206802690A400261A08C0204206884
:101FE0000369A66A334313430361206842690A40C8
:101FF0004261A08D010420684269236B1A430A43A1
:10200000426194F83500020294F836000104206819
:10201000C36A03F07F43C3622068C36A94F83460E4
:10202000114333430B43C3622068416B41F0040109
:1020300041632068416B41F002014163206881697E
:1020400041F001018161C4F8A450012084F8A1008D
:10205000002070BD00F800F030B5364887B000258C
:10206000016841F080610160006800F080600590C7
:1020700030481438016841F400010160016801F43E
:1020800000010591016841F002010160016801F061
:1020900002010591016841F020010160016801F031
:1020A00020010591016841F040010160016801F0E3
:1020B00040010591016841F080010160016801F073
:1020C00080010591016841F480710160006803247A
:1020D00000F480700590202000900120CDE90204DA
:1020E000019069461448FFF7DFFD4FF480600090CF
:1020F0000220CDE901050E20CDE9034069460F48D5
:10210000FFF7D2FD4FF40C60009069460C48FFF7D2
:10211000CBFD4FF47E40009069460A48FFF7C4FDAE
:1021200040F2F760009069460748FFF7BDFD07B031
:1021300030BD000044380240000402400014024058
:1021400000180240001C02400020024070B5044606
:1021500090F8A0000E46012820D0012584F8A05058
:10216000022084F8A10003EB830000EBC30004EB22
:10217000800141F8386F886A3044C1E90102C86AB9
:102180001044C8601A46204604F008FD20684562E5
:1021900084F8A150002084F8A00070BD022070BD1A
:1021A0002DE9F041044690F8A0000F4601281FD009
:1021B000012584F8A050022084F8A10003EB8300DD
:1021C00000EBC30004EB80010026E1E90E67204626
:1021D000C1E90262C1E90A721A4604F0DFFC206814
:1021E000456284F8A15084F8A0600020BDE8F08129
:1021F0000220FBE708B50020009008BD00F01F0298
:10220000012191404009800000F1E020C0F8001158
:1022100070470000F0B40E4B1B68C3F30223C3F1F8
:102220000704042C00D904241D1D072D01D200230E
:1022300000E0DB1E012606FA04F56D1E0D409D40F0
:102240009E40761E164045EA0601F0BC04F076BDBD
:102250000CED00E0064A00F0070110684FF6FF039E
:10226000184040EA0120034908431060704700000D
:102270000CED00E00000FA052DE9F8431D48016867
:1022800041F0805101600068012700F0805000900B
:10229000380490FAA0F0DFF86080B0FA80F048F8D7
:1022A0002070FFF7F9FD04464FF47A75134E04E0F1
:1022B000FFF7F2FD001BA84213D87068C003F7D5E2
:1022C0004FF4003090FAA0F0B0FA80F048F8207097
:1022D000FFF7E2FD044607E0FFF7DEFD001BA84222
:1022E00002D90320BDE8F88370688003F4D500208C
:1022F000F8E700004038024000000E420070004045
:102300000120010291FAA1F1024AB1FA81F142F8E9
:102310002100704700000E422DE9F84F0446006886
:10232000DFF878829E4DC10747F6C07A4FF0E0464D
:102330004FF0010B4FF0000901D180074BD59949AF
:10234000C1F86890FFF7A8FD074604E0FFF7A4FD79
:10235000C01B64287ED828680001F7D420789249F1
:10236000C0070DD09AFAAAF26068B2FA82F29040E1
:1023700096FAA6F3A268B3FA83F39A401043086072
:102380002078800718D5086896FAA6F200F0E04099
:10239000B2FA82F2D0406268237B920142EA036281
:1023A00042EA00700860D8F80010E26921F01F01CD
:1023B000521E1143C8F800107A49C1F868B0FFF7FF
:1023C0006BFD074604E0FFF767FDC01B642841D89A
:1023D00028680001F7D52068410701D4000776D5A9
:1023E0007049C1F87090FFF757FD074604E0FFF70A
:1023F00053FDC01B64282DD82868C0438000F6D543
:1024000020786A4F40074FF0706C29D5386896FAEB
:10241000A6F100F0E040B1FA81F1C8409AFAAAF2C0
:102420002169B2FA82F291409CFAACF36269B3FA84
:1024300083F39A40114396FAA6F2B2FA82F29040E0
:1024400001433960D8F800106FF0FF0321F4F85110
:10245000226A00E079E003EB02221143C8F8001081
:102460002078000723D538689CFAACF100F0706042
:10247000B1FA81F1C8409AFAAAF22169B2FA82F25D
:1024800091409CFAACF2B2FA82F29040014396FA83
:10249000A6F2A069B2FA82F2904001433960D8F8FE
:1024A0000010626A21F440311143C8F800103D4920
:1024B000C1F870B0FFF7F0FC064604E0FFF7ECFC53
:1024C000801B642841D82868C0438000F6D4207857
:1024D000800651D532484F464030016841F0805166
:1024E00001600068324E00F080500090306840F487
:1024F00080703060FFF7D0FC054604E0FFF7CCFCAD
:10250000401B642821D83068C005F7D5264E143EFC
:102510003068218D00F4407001F4407188422BD066
:102520003068244920F44070C1F800B00F6030607A
:10253000800710D5FFF7B0FC054641F2883707E069
:10254000FFF7AAFC401BB84202D90320BDE8F88F70
:1025500030688007F4D5A06A1149C0F30122083120
:10256000032A13D0086820F4F81008603068218D21
:10257000C1F30B01084330602078C00604D50E4932
:1025800094F82C00C1F8E0010020DFE70A680B4B4B
:1025900022F4F812184002430A60E7E78C38024040
:1025A0000038024000004742843802408838024028
:1025B00000700040400E474200104742FFFCFF0FF2
:1025C0002DE9F05FDFF8F8A104460F46DAF80000C5
:1025D000DFF8F08100F00F02C8B27A49814641F27B
:1025E000883608F10808BA4261D202468AF800200B
:1025F000DAF8000000F00F00B8427DD120788007A3
:1026000007D5D8F80020A36822F0F0021A43C8F8D2
:1026100000202078C0072DD0606801281AD0022839
:102620001BD0032819D009688907002964DAD8F873
:102630000010474621F003010143C8F80010FFF7DE
:102640002BFC0546606801280FD0022818D003280B
:102650001CD027E009688903E7E709688901E4E7F6
:10266000FFF71AFC401BB04258D83868C0F381000D
:102670000128F5D188E0FFF70FFC401BB0424DD890
:102680003868C0F381000228F5D17DE03868FFF793
:1026900003FC401BB042F9D940E0FFF7FDFB401BB3
:1026A000B0423BD8386810F00C0FF6D16CE02078BF
:1026B000800707D5D8F80020A36822F0F0021A435B
:1026C000C8F800202078C0074CD06068012828D0C6
:1026D000022829D0032827D009688907002949DA68
:1026E000D8F8002022F003020243C8F80020FFF7C8
:1026F000D3FB0546606800E03CE001281DD00228BD
:1027000029D0032838D0B3464646306810F00C0F65
:1027100028D0FFF7C1FB411B5945F6D90320BDE87E
:10272000F09F09688903D9E709688901D6E7FFF7AF
:10273000B3FB411B594502D9F0E7B3464646306822
:10274000C0F381000128F2D10CE0FFF7A5FB411B8B
:10275000594502D9E2E7B34646463068C0F38100E6
:102760000228F2D18AF80090DAF8000000F00F0099
:10277000B84209D00120D2E744462068FFF78CFB1D
:10278000401BB042F9D9C9E72078400707D5D8F8EF
:102790000010E26821F4E0511143C8F800102078DD
:1027A000000708D5D8F80010226921F4604141EAF9
:1027B000C201C8F800100F20FFF796FB0020AEE71B
:1027C000003C02400038024010B500F043F80849D0
:1027D0000968F02292FAA2F201F0F001B2FA82F254
:1027E000D140044A515CC8400349086010BD000054
:1027F00008380240E83601080000002010B5FFF755
:10280000E3FF074909684FF4E05292FAA2F201F49B
:10281000E051B2FA82F2D140024A515CC84010BD88
:1028200008380240E836010810B5FFF7CDFF074928
:1028300009684FF4604292FAA2F201F46041B2FAE0
:1028400082F2D140024A515CC84010BD08380240B3
:10285000E836010830B51948006810F00C01184836
:1028600012D0184C04290ED008290DD1134A121F7A
:102870001168136801F03F015D0247F6C07304D58B
:10288000B4FBF1F003E0204630BDB0FBF1F011687D
:10289000194093FAA3F3B3FA83F3D940484311687C
:1028A0004FF4403292FAA2F201F44031B2FA82F2CD
:1028B000D140491C4900B0FBF1F030BD083802405E
:1028C0000024F40040787D012DE9F84F044600789B
:1028D000DFF8FCA2BF4DC0074FF0000648D0DAF881
:1028E00000105046C1F38101012908D00068C0F3EF
:1028F000810002280AD1281D0068400206D52868F8
:10290000800335D56068002873D031E0DFF8C492C9
:1029100009F1020989F80060FFF7BEFA074641F2A3
:10292000883804E0FFF7B8FAC11B41457AD8286817
:102930008003F7D4207989F80000606860B1FFF760
:10294000ABFA074604E0FFF7A7FAC11B4145EDD8F3
:1029500028688003F7D50BE0FFF79EFA074604E0EE
:10296000FFF79AFAC11B4145E0D828688003F7D4E5
:102970002078DFF86492800744D5DAF800105046DA
:1029800011F00C0F4FF0F80809D00068C0F3810077
:1029900002280BD18E48001F0068400206D4286828
:1029A000800714D5E068012823D110E0E068D0B199
:1029B0000120C9F80000FFF76FFA074604E0FFF7AF
:1029C0006BFAC01B6428B1D828688007F7D528683F
:1029D00098FAA8F22169B2FA82F220F0F800914048
:1029E000084328600EE0C9F80060FFF755FA074673
:1029F00005E0EAE0FFF750FAC01B642812D8286807
:102A00008007F7D42078000725D5DFF8C481734804
:102A1000616908F16C0881B101210160FFF73CFA9E
:102A2000074605E07EE0FFF737FAC01B642879D837
:102A3000D8F800008007F6D50DE00660FFF72CFA05
:102A4000074604E0FFF728FAC01B64286AD8D8F8C4
:102A500000008007F6D42078400753D55C48383012
:102A6000016841F0805101600068DFF8748100F076
:102A700080500090D8F8001041F48071C8F8001020
:102A8000FFF70AFA074604E0FFF706FAC01B6428BE
:102A900048D8D8F80000C005F6D5DFF834B10BF1FE
:102AA000680B8BF80060FFF7F7F9074641F28838AA
:102AB00004E0FFF7F1F9C11B41457ED8DBF80000C7
:102AC0008007F6D4207A8BF80000A06868B1FFF781
:102AD000E3F9074604E0FFF7DFF9C11B41456CD875
:102AE000DBF800008007F6D50CE0FFF7D5F90746C4
:102AF00004E0FFF7D1F9C11B41455ED8DBF80000C7
:102B00008007F6D4A069E8B3DAF80010C1F38101B8
:102B100002295AD0022806D0C9F86060FFF7BCF934
:102B200004464DE049E04F46C9F86060FFF7B4F94C
:102B3000064604E0FFF7B0F9801B64283DD82868FA
:102B40008001F7D4D4E90701084347F6C07191FA30
:102B5000A1F1626AB1FA81F18A40A16A4FF0FF33B4
:102B600003EB51014FF4403393FAA3F3B3FA83F329
:102B700099400A4310434FF0706292FAA2F2B2FAFF
:102B800082F200E01FE0E16A914008431049091F0A
:102B9000086001203866FFF77FF9044604E0FFF77C
:102BA0007BF9001B642808D828688001F7D50AE063
:102BB000FFF772F9001B642802D90320BDE8F88FE3
:102BC00028688001F4D40020F8E70120F6E700002F
:102BD000083802400038024000004742800E474259
:102BE0000070004070470068503050F82100704776
:102BF0000068503040F82120704700000449D1F8A7
:102C0000800218B10020C1F8800270470120FAE765
:102C10000080404210B504460068C16849050CD5E3
:102C20008068400409D52046FFF7E8FF2068C168A6
:102C300001F0800161F49061C16003494FF48000AC
:102C400008600120607710BD143C014001A0FDF731
:102C500057BB0000414C41524D2041210D0A00005C
:102C600010B504460068C168C9050CD58068C00469
:102C700009D52046FFF7EAFF2068C16801F080010E
:102C800061F4C071C1602068C16889050CD5806895
:102C9000800409D52046FFF7A5FF2068C16801F030
:102CA000800161F42071C16003494FF40030086075
:102CB0000120607710BD0000143C014010B5006891
:102CC0000B4641680D480140080CD870C1F304243C
:102CD0005C7001F03F049C70C1F34231197052B92D
:102CE00004F0E6F8D870587804F0E2F85870987854
:102CF00004F0DEF89870002010BD00003FFFFF00D8
:102D000010B50B460168896A596001680969C1F309
:102D10000E019960006801680E480140C1F305404A
:102D20001870C1F306245C7001F07F049C7040248D
:102D300004EA1141D97052B904F0BAF81870587801
:102D400004F0B6F85870987804F0B2F89870002043
:102D500010BD00007F7F7F0070B5040002D0607F4F
:102D600010B106E0012070BD00202077204600F061
:102D700041F8022060772168CA2048622168532008
:102D80004862204604F0A8F8FF210028206803D0FC
:102D9000416204206077E5E78268154B1A40826043
:102DA0002068826863681A43D4E904352B431A43C8
:102DB00082602268E068106120680269238942EA23
:102DC000034202612068C26822F08002C26020686B
:102DD000026C22F4802202642068026CA3691A4308
:102DE00002642068416201206077002070BD00000D
:102DF000BFFF8FFF10B510489AB00024016841F062
:102E000080510160006800F080501890FFF778FA58
:102E1000042006940090012468460294FFF754FDB4
:102E200020200C90C00016900CA8FFF775FA0348FC
:102E300004601AB010BD0000403802403C0E47420A
:102E40002DE9F0470446007F0B46012825D04FF0BE
:102E5000010984F81C9002206077587802B304F0CE
:102E600027F8987804F024F89878D97840EA014552
:102E700058781978000240EA413005432168CA2099
:102E80004862216853204862204604F025F8002655
:102E9000FF274FF0040858BB19E00220BDE8F08777
:102EA000C10603D500F0EF000A305870D87804F05E
:102EB00008F80204587804F004F842EA00229878EE
:102EC00003F0FFFF0243187842EA4035D6E70F4887
:102ED0000540206845602068C16821F08001C1601C
:102EE0002068806880060AD4204600F089F830B156
:102EF0002068476284F81D8026770120CEE720688D
:102F0000476284F81D9026770020C7E73FFFFF0047
:102F10002DE9F0470446007F0D46012811D04FF0FF
:102F2000010A84F81CA002206077206800268068CF
:102F30004FEA406042B100281ADA287803F0B8FF5F
:102F400017E00220BDE8F087002800DBEE7028784B
:102F500003F0B7FF0204687803F0B3FF42EA0022EF
:102F6000A87803F0AEFF0243E87842EA00470AE09F
:102F7000EE70A878297840EA01476878E97800027D
:102F800040EA014007432168CA2048622168532073
:102F90004862204603F0A0FF4FF0FF084FF00409FD
:102FA000E0B916480740206807602068816821F46E
:102FB00080218160D5E903100143206882681143B4
:102FC00081602068C16821F08001C160206880684C
:102FD00080060BD4204600F013F838B12168C1F800
:102FE000248084F81D9026770120ABE72168C1F882
:102FF000248084F81DA026770020A3E77F7F7F0030
:1030000070B505460068C16821F0A001C160FEF7F7
:1030100043FF04464FF47A7606E0FEF73DFF001BBF
:10302000B04201D9032070BD2868C0688006F4D57D
:10303000002070BD70B50D46040003D094F82C003C
:1030400010B107E0012070BD002084F82D0020465B
:1030500000F012F8022084F82C00211D2068FEF7F1
:103060004DF8D4E900022946FEF798F8012084F8CB
:103070002C00002070BD0000304800B5016887B00A
:1030800041F001010160006800F0010005902B484B
:103090000838016841F004010160016801F0040191
:1030A0000591016841F008010160016801F0080123
:1030B0000591016841F010010160016801F0100103
:1030C0000591016841F020010160016801F02001D3
:1030D0000591016841F0400101600068694600F017
:1030E000400005900D2000900220019001200290E8
:1030F000032003900C2004901148FEF7D5FD4CF2FC
:103100000370009069460F48FEF7CEFD4FF68370BE
:10311000009069460C48FEF7C7FD4FF63F0000904F
:1031200069460A48FEF7C0FD48F23710009069462C
:103130000748FEF7B9FD07B000BD0000383802406F
:1031400000080240000C024000100240001402403F
:103150000018024010B5044690F82C00022809D04F
:10316000022084F82C002068FDF7EEFF012084F88F
:103170002C00002010BD70B5044690F82C000D46C0
:1031800002280CD0022084F82C002068FDF7E2FF12
:103190002868022804D0012084F82C00002070BD8B
:1031A0000520F9E770B515460E46040003D094F8E3
:1031B000490010B107E0012070BD002084F84800EC
:1031C000204600F01BF804F108012068FDF72CFFF1
:1031D0003146A2682068FDF763FFD4E90102294661
:1031E000236BFDF701FFA168206850F8212042F011
:1031F000010240F82120002070BD00001A4800B5EF
:10320000016887B041F001010160006800F0010031
:10321000059015480838016841F00801016001680F
:1032200001F008010591016841F01001016000689A
:10323000694600F0100005904EF2B3700090022035
:10324000019001200290032003900C200490074875
:10325000FEF72AFD4FF68070009069460448FEF79D
:1032600023FD07B000BD000038380240000C0240CA
:10327000001002404FF0E0210428086903D020F03C
:1032800004000861704740F00400FAE710B5401EE2
:10329000B0F1807F01D3012010BD4FF0E0246061C8
:1032A0000F21601703F04AFD0020A0610720206174
:1032B000002010BD7047704710B5040003D094F88B
:1032C000390010B107E0012010BD002084F838005B
:1032D000204600F00DF8022084F83900211D2068F6
:1032E00003F0E8FF012084F83900002010BD000041
:1032F00008B500680B49884212D10B48016841F0BB
:10330000020101600068032200F002000090012128
:103310001D20FEF77FFFBDE808401D20FEF76EBFB1
:1033200008BD000000040040403802400168CA683F
:1033300042F00102CA600068016841F001010160C9
:1033400000207047704770B50446006801694FF06F
:103350000005C943890715D4C168C943890711D439
:10336000E91E0161012020762068806980072046DF
:1033700002D0FFF7E7FF04E000F098F8204600F0E5
:1033800096F8257620680169C943490717D4C168B2
:10339000C943490713D46FF004010161022020766C
:1033A0002068806910F4407F204602D0FFF7CAFFF2
:1033B00004E000F07BF8204600F079F825762068DC
:1033C0000169C943090716D4C168C943090712D462
:1033D0006FF008010161042020762068C069800731
:1033E000204602D0FFF7AEFF04E000F05FF8204671
:1033F00000F05DF8257620680169C943C90617D435
:10340000C168C943C90613D46FF0100101610820D7
:1034100020762068C06910F4407F204602D0FFF774
:1034200091FF04E000F042F8204600F040F82576D5
:1034300020680169C943C90708D1C168C943C907E0
:1034400004D1891E0161204600F032F8206801692C
:10345000C943090609D4C168C943090605D46FF0F8
:10346000800101612046FFF725FF20680169C943FB
:10347000490609D4C168C943490605D46FF0400123
:103480000161204600F020F820680169C9438906DF
:103490000BD4C168C943890607D46FF020010161CC
:1034A0002046BDE87040FFF706BF70BD704770470B
:1034B0000349884203D1034801680A31016070471B
:1034C00020050020A00100207047704790F83900C7
:1034D000704738B5016804460868CA68C0F3000040
:1034E00002F4807238B132B1086848680090E06B2D
:1034F00040F00100E06308684A69C0F3400002F050
:10350000010238B132B1086848680090E06B40F0C1
:103510000400E06308684A69C0F3800002F0010219
:1035200038B132B1086848680090E06B40F00200A2
:10353000E06308684A69C0F3C00002F0010238B1D4
:1035400032B1086848680090E06B40F00800E06322
:103550000868C968C0F3401001F0200118B111B12A
:10356000204603F063FF20680168C068C1F3C01102
:1035700000F0800019B110B1204604F065F8216810
:103580000868CA68C0F3801002F04002012568B1E3
:1035900062B1CA68204622F04002CA6094F839102D
:1035A00032290CD080F8395000F0DAF8E06B0028AE
:1035B00004D084F839502046FFF787FF38BD222118
:1035C00080F83910F0E770B5040004D094F83900A1
:1035D000002510B106E0012070BD84F83850204667
:1035E00000F020F8022084F839002068C16821F436
:1035F0000051C160204603F06DFF2068016921F48D
:10360000904101612068416921F02A0141612068EF
:10361000C16841F40051C160E563012084F83900BC
:10362000002070BD10B500681A4986B088422FD1BD
:103630001948016841F001010160006800F00100D3
:10364000059015481430016841F0100101600068D0
:10365000012100F0100005904FF40070009002204E
:10366000CDE90101039007200C4C049069462046E7
:10367000FEF71AFB2115009169462046FEF714FB60
:103680002520FEF7BBFD032211462520FEF7C2FDD3
:1036900006B010BD0010014030380240000002406A
:1036A00090F83930012B01D0122B2BD131B32AB332
:1036B00090F83830012B25D0012380F83830816212
:1036C0008285C2850022C26390F83910122917D072
:1036D000222180F839100168CB6843F48073CB60F5
:1036E00001684B6943F001034B6180F838200068A2
:1036F000C16841F02001C16000207047012070477F
:103700003221E6E70220704730B50068114988424F
:103710000CD1114A5088010408D411464404097898
:103720004FF0000306D50A2901D0538030BD40F484
:1037300000400DE00D2909D0C0F30D04074D401CD9
:1037400080B229555080C728EFD830BD40F4804062
:10375000508030BD001001401C0000207402002089
:103760007047FEE770B50D4C0025C4F890520C4828
:10377000016821F440610160016841F480610160E9
:10378000C4F89452022004F5247403F0E3FF0120EE
:103790002060022003F0DEFF256070BD0080434200
:1037A000001C02400E4810B5016886B041F080014F
:1037B00001600068012400F0800005903020CDE910
:1037C00000040220CDE9024069460648FEF76CFA83
:1037D0000548C0F89442C0F8904206B010BD000001
:1037E00030380240001C02400080434270B50D4C4E
:1037F0000026C4F890620C48016821F44061016021
:10380000016841F4806101600125C4F894520220EE
:1038100004F5247403F09EFF2560022003F09AFF54
:10382000266070BD00804342001C02402DE9F04735
:10383000814616480024016821F440610160016856
:103840000160134E254627464FF00108C6F89072D6
:10385000022003F07FFFC6F890826006040ED6F8BF
:10386000140208B1641CE4B2012003F073FF6D1C64
:10387000EDB2082DEAD3B9F1000F04D0FFF772FFC3
:103880002046BDE8F087FFF7B1FFF9E7001C0240D2
:10389000008043422DE9F04105461448016821F4B7
:1038A00040610160016841F480610160104E0027B1
:1038B000C6F890723C464FF00108E809C6F8940239
:1038C0006806050E022003F045FFC6F8908202202C
:1038D00003F040FFC6F89072022003F03BFF641C27
:1038E000E4B2082CE9D3BDE8F0810000001C0240DE
:1038F0000080434270B50D48016821F440610160C9
:10390000016841F480610160094C0120C4F894020F
:10391000C4F89002042004F5247403F01BFF002572
:103920006560042003F016FF256070BD001C024096
:10393000008043420E4810B5016821F440610160E7
:10394000016841F4806101600A4C0020C4F89002D3
:10395000C4F89402042004F5247403F0FBFE012053
:1039600020606060BDE81040042003F0F3BE00005A
:10397000001C02400080434270B5124800240168D8
:1039800021F440610160016801600F4D0126C5F816
:103990009462304603F0DEFEC5F89062012003F029
:1039A000D9FE07E0641CE4B2FA2C03D9FFF7C2FF8A
:1039B000012070BDD5F814020028F3D1C5F890029B
:1039C00070BD0000001C02400080434270B51B48DF
:1039D00086B00025016841F001010160016801F035
:1039E00001010591016841F004010160016801F0E5
:1039F00004010591016841F0800101600068032421
:103A000000F08000059002200126CDE90204CDE9F6
:103A1000006569460A48FEF747F9700303948DE88C
:103A2000610069460748FEF73FF90C20009069469F
:103A30000548FEF739F906B070BD00003038024085
:103A40000000024000080240001C024010B51F2088
:103A500000F048F8C0F3820010BD00001CB5FCF770
:103A600026FC0121072003F0C3F9642003F064FE63
:103A70000021072003F0BCF9642003F05DFEFCF791
:103A800018FC1548012201788DF8001041788DF856
:103A9000011081788DF80210C1788DF8031001793A
:103AA0008DF8041040798DF805000D480B49C0E9E8
:103AB000001291038160C910C16000210182C0F829
:103AC00014D0C0E90621D1050162FDF75DFE002892
:103AD00000D001201CBD000000AF0120008002408A
:103AE000D804002008B501466A460248FDF798FF51
:103AF000009808BDD804002070B50E490E4A06464D
:103B000008881268002422B13046BDE8704002F0F7
:103B100027BE4D8800214543084602F00DFC02F007
:103B20003DFDB1B2054801E00180641CAC42FBD30D
:103B300070BD0000CC030020B80400200000086025
:103B40002DE9F05F394C3A4DA071296839B102F086
:103B500027FEE88A2080288B6080BDE8F09F3349EB
:103B60002C232A2589884FF0F00949F2413A2B2667
:103B700045F2105B4FF4305E4FF448774FF4A07875
:103B800045F2103C4FF4F07258B1A4F80080A4F84C
:103B90000290514501D0614529D123816581A681DB
:103BA00039E0A4F80090A4F80280514501D06145A5
:103BB00008D123816581A681614531D1A4F80080B7
:103BC00062802DE0594508D1A4F808E04FF4285050
:103BD00060814FF42C50A08106E0A1F5C8506338F5
:103BE0001ED123816681A5812280678018E0594516
:103BF00008D1A4F808E04FF4285060814FF42C500D
:103C0000A08106E0A1F5C850633804D12381658105
:103C1000A68127806280614502D12280A4F80280BB
:103C2000BDE8F05F002002F0ABBA0000CC0300203A
:103C3000B80400202DE9F04104463A480D460068DA
:103C400020B12046BDE8F04102F0BEBD364E270A45
:103C50003146B0884989A0F513434FEA1528413B06
:103C60000CD0A0F5A643103B08D0A0F5AA43103B0A
:103C700011D0A0F5C853633B27D04BE0084602F0B3
:103C800081FC384602F072FCE0B202F06FFCB089B1
:103C900002F078FC38E0084602F074FC384602F086
:103CA00065FC7089401C80B202F06CFCE0B202F04E
:103CB0005DFCB08902F066FC404602F057FCB0891A
:103CC000401C80B202F05EFC21E0B07918B9308867
:103CD000001B401E84B2084602F054FC270A3846F6
:103CE00002F044FCE0B202F041FC384602F03EFC37
:103CF000E0B202F03BFCB08902F044FC404602F026
:103D000035FCE8B202F032FC404602F02FFCE8B28B
:103D100002F02CFC054930890880881C0280BDE82F
:103D2000F0810000B8040020CC030020FEFF0760F3
:103D30002DE9F8431F46144B804608981B6833B1A1
:103D400000903B46404602F05DFDBDE8F883A2EBE3
:103D50000802521C96B20C4685B2DFF830900FE094
:103D60002146404602F0E8FA02F018FC00204946DD
:103D700002E00D80401C80B2B042FAD3641CA4B2B1
:103D8000BC42EDD9E1E70000B80400200000086063
:103D90002DE9F04F95B002F0A5FEFE4D4FF0010A5F
:103DA000A5F15009A88049F2413B45F2103645F291
:103DB000105441F6631818B102F07AFD02F08BB985
:103DC000F5480027016841F002010160006810A970
:103DD00000F0020000902020CDE9100A0320CDE978
:103DE00012A0EE48FDF760FF4FF020414846C9F8A9
:103DF0000010EB49C0E901171021C9F80C70C0E9A7
:103E00000471C9F818700902C9F81C70C0E9097179
:103E10008900C0E90B71C9F834708901C9E90E71D4
:103E200046210B910F20CDE90907CDE90207049047
:103E3000D8480F9702AA09A908975038FFF7B2F996
:103E4000322003F079FCD32002F09CFB02F066F9EB
:103E5000A88002F063F9A88002F060F94FF6FF72C3
:103E600002EA0020A88002F059F9A9885F460843B9
:103E7000A880B84248D0D42002F084FB02F04EF96A
:103E8000A88002F04BF9A88002F048F902EA00206D
:103E9000A88002F043F9A9880843A880B04233D033
:103EA0004FF45A4002F06EFB02F038F9A8804FF44C
:103EB0005B4002F067FB02F031F902EA0020A880C3
:103EC0004FF45C4002F05EFB02F028F9A988084339
:103ED000A880B0F5004F7DD0A04215D0A12002F0FF
:103EE00051FB02F01BF9A88002F018F902EA002049
:103EF000A88002F013F9A9880843A0F5AE41A88074
:103F0000613901D1A5F80480A988A6A0FCF7F8F9C9
:103F1000A888B8427ED1CF2002F034FB002002F006
:103F200025FBC12002F022FB302002F01FFBED2018
:103F300002F028FB642002F019FB032002F016FBBC
:103F4000122002F013FB812002F010FBE82002F0A7
:103F500019FB852002F00AFB102002F007FB7A20F3
:103F600002F004FBCB2002F00DFB392002F0FEFA38
:103F70002C2002F0FBFA002002F0F8FA342002F0C4
:103F8000F5FA022002F0F2FAF72002F0FBFA202004
:103F900002F0ECFAEA2002F0F5FA002002F0E6FA6C
:103FA000002002F0E3FAC02002F0ECFA1B2002F03D
:103FB000DDFAC12002F0E6FA012002F0D7FAC520AE
:103FC00002F0E0FA302002F0D1FA302002F0CEFA0E
:103FD000C72000E0B7E002F0D5FAB72002F0C6FA39
:103FE000362002F0CFFA482002F0C0FA3A2002F060
:103FF000C9FA552002F0BAFAB12002F0C3FA002043
:1040000002F0B4FA1A2002F0B1FAB62002F0BAFABD
:104010000A2000E099E002F0A9FAA22002F0A6FA34
:10402000F22002F0AFFA002002F0A0FA262002F0FF
:10403000A9FA012002F09AFAE02002F0A3FA0F2078
:1040400002F094FA2A2002F091FA282002F08EFA67
:10405000082002F08BFA0E2002F088FA082002F005
:1040600085FA542002F082FAA92002F07FFA432058
:1040700002F07CFA0A2002F079FA0F2002F076FAB8
:10408000002002F073FA002002F070FA002002F023
:104090006DFA002002F06AFAE12002F073FA0020C3
:1040A00002F064FA152002F061FA172002F05EFABD
:1040B000072002F05BFA112002F058FA062002F005
:1040C00055FA2B2002F052FA562002F04FFA3C200B
:1040D00002F04CFA052002F049FA102002F046FAEC
:1040E0000F2002F043FA3F2002F040FA3F2002F096
:1040F0003DFA0F2002F03AFA2B2002F043FA00209A
:1041000002F034FA002002F031FA012002F02EFA17
:104110003F2002F02BFA2A2002F034FA002002F0AD
:1041200025FA002002F022FA002002F01FFAEF2008
:1041300002F01CFA112002F025FA782003F0FCFAB4
:10414000292001F00BBFAC80DEE6B0427ED1ED202D
:1041500002F018FA012002F009FAFE2002F006FA35
:10416000EE2002F00FFADE2002F000FA212002F029
:10417000FDF9F12002F006FA012002F0F7F9DF2044
:1041800002F000FA102002F0F1F9C42002F0FAF96E
:104190008F200FE0CC0300203038024000040240A2
:1041A000040100A0204C43442049443A25780D0ADC
:1041B0000000000002F0DAF9C62002F0E3F9002066
:1041C00002F0D4F9E22002F0D1F9E22002F0CEF9B7
:1041D000E22002F0CBF9BF2002F0D4F9AA2002F0CD
:1041E000C5F9B02002F0CEF90D2002F0BFF9002091
:1041F00002F0BCF90D2002F0B9F9002002F0B6F986
:10420000112002F0B3F9002002F0B0F9192002F0F9
:10421000ADF9002002F0AAF9212002F0A7F9002050
:1042200002F0A4F92D2002F0A1F9002002F09EF97D
:104230003D2002F09BF9002002F098F95D2002F089
:1042400095F9002002F092F95D2000E0FEE302F013
:104250008DF9002002F08AF9B12002F093F9802054
:1042600002F084F9002002F081F98B2002F07EF93F
:10427000002002F07BF9962002F078F9002002F08D
:1042800075F9B22002F07EF9002002F06FF90020EB
:1042900002F06CF9022002F069F9002002F066F9E0
:1042A000032002F063F9002002F060F9B32002F06D
:1042B00069F9002002F05AF9002002F057F90020B5
:1042C00002F054F9002002F051F9002002F04EF9FA
:1042D000002002F04BF9002002F048F9002002F023
:1042E00045F9002002F042F9002002F03FF90020D9
:1042F00002F03CF9002002F039F9002002F036F912
:10430000002002F033F9002002F030F9002002F022
:104310002DF9002002F02AF9002002F027F90020F0
:1043200002F024F9002002F021F9002002F01EF929
:10433000002002F01BF9002002F018F9002002F022
:1043400015F9B42002F01EF98B2002F00FF90020BD
:1043500002F00CF9962002F009F9002002F006F9AB
:10436000A12002F003F9002002F000F9B52002F0CC
:1043700009F9022002F0FAF8002002F0F7F8032011
:1043800002F0F4F8002002F0F1F8042002F0EEF858
:10439000002002F0EBF8B62002F0F4F8002002F062
:1043A000E5F8002002F0E2F8B72002F0EBF8002078
:1043B00002F0DCF8002002F0D9F83F2002F0D6F835
:1043C000002002F0D3F85E2002F0D0F8002002F0C6
:1043D000CDF8642002F0CAF8002002F0C7F88C2063
:1043E00002F0C4F8002002F0C1F8AC2002F0BEF8E0
:1043F000002002F0BBF8DC2002F0B8F8002002F048
:10440000B5F8702002F0B2F8002002F0AFF890206A
:1044100002F0ACF8002002F0A9F8EB2002F0A6F8B8
:10442000002002F0A3F8DC2002F0A0F8002002F047
:104430009DF8B82002F0A6F8002002F097F80020BE
:1044400002F094F8002002F091F8002002F08EF8BB
:10445000002002F08BF8002002F088F8002002F023
:1044600085F8002002F082F8BA2002F08BF82420B0
:1044700002F07CF8002002F079F8002002F076F8D3
:10448000002002F073F8C12002F07CF8202002F036
:104490006DF8002002F06AF8542002F067F800205E
:1044A00002F064F8FF2002F061F8002002F05EF8EC
:1044B000C22002F067F80A2002F058F8002002F04B
:1044C00055F8042002F052F8002002F04FF8C32003
:1044D00002F058F83C2002F049F8002002F046F8BB
:1044E0003A2002F043F8002002F040F8392002F0B0
:1044F0003DF8002002F03AF8372002F037F80020AB
:1045000002F034F83C2002F031F8002002F02EF8DE
:10451000362002F02BF8002002F028F8322002F0BA
:1045200025F8002002F022F82F2002F01FF80020CA
:1045300002F01CF82C2002F019F8002002F016F806
:10454000292002F013F8002002F010F8262002F0D3
:104550000DF8002002F00AF8242002F007F80020ED
:1045600002F004F8242002F001F8002001F0FEFF20
:10457000232001F0FBFF002001F0F8FF3C2001F0B8
:10458000F5FF002001F0F2FF362001F0EFFF0020E0
:1045900001F0ECFF322001F0E9FF002001F0E6FF1E
:1045A0002F2001F0E3FF002001F0E0FF2C2001F0BC
:1045B000DDFF002001F0DAFF292001F0D7FF002005
:1045C00001F0D4FF262001F0D1FF002001F0CEFF42
:1045D000242001F0CBFF002001F0C8FF242001F0CF
:1045E000C5FF002001F0C2FF232001F0BFFF002023
:1045F00001F0BCFFC42001F0C5FF622001F0B6FF4E
:10460000002001F0B3FF052001F0B0FF002001F011
:10461000ADFF842001F0AAFF002001F0A7FFF020E9
:1046200001F0A4FF002001F0A1FF182001F09EFF7F
:10463000002001F09BFFA42001F098FF002001F072
:1046400095FF182001F092FF002001F08FFF50200D
:1046500001F08CFF002001F089FF0C2001F086FFA3
:10466000002001F083FF172001F080FF002001F0FF
:104670007DFF952001F07AFF002001F077FFF32005
:1046800001F074FF002001F071FFE62001F06EFFE1
:10469000002001F06BFFC52001F074FF322001F013
:1046A00065FF002001F062FF442001F05FFF002061
:1046B00001F05CFF652001F059FF002001F056FF7A
:1046C000762001F053FF002001F050FF882001F018
:1046D0004DFF002001F04AFFC62001F053FF2020CB
:1046E00001F044FF002001F041FF172001F03EFFE0
:1046F000002001F03BFF012001F038FF002001F015
:1047000035FFC72001F03EFF002001F02FFF002001
:1047100001F02CFF002001F029FF002001F026FF0E
:10472000C82001F02FFF002001F020FF002001F041
:104730001DFF002001F01AFF002001F017FFC92023
:1047400001F020FF002001F011FF002001F00EFF1A
:10475000002001F00BFF002001F008FF002001F015
:1047600005FF002001F002FF002001F0FFFE002005
:1047700001F0FCFE002001F0F9FE002001F0F6FE41
:10478000002001F0F3FE002001F0F0FE002001F017
:10479000EDFE002001F0EAFE002001F0E7FE00201F
:1047A00001F0E4FEE02001F0EDFE162001F0DEFE57
:1047B000002001F0DBFE1C2001F0D8FE002001F0FB
:1047C000D5FE212001F0D2FE002001F0CFFE3620E0
:1047D00001F0CCFE002001F0C9FE462001F0C6FE2B
:1047E000002001F0C3FE522001F0C0FE002001F0C5
:1047F000BDFE642001F0BAFE002001F0B7FE7A2071
:1048000001F0B4FE002001F0B1FE8B2001F0AEFEFD
:10481000002001F0ABFE992001F0A8FE002001F07D
:10482000A5FEA82001F0A2FE002001F09FFEB92005
:1048300001F09CFE002001F099FEC42001F096FEDC
:10484000002001F093FECA2001F090FE002001F04C
:104850008DFED22001F08AFE002001F087FED920D3
:1048600001F084FE002001F081FEE02001F07EFED8
:10487000002001F07BFEF32001F078FE002001F023
:1048800075FEE12001F07EFE162001F06FFE002093
:1048900001F06CFE1C2001F069FE002001F066FEB4
:1048A000222001F063FE002001F060FE362001F0BE
:1048B0005DFE002001F05AFE452001F057FE002069
:1048C00001F054FE522001F051FE002001F04EFE96
:1048D000642001F04BFE002001F048FE7A2001F038
:1048E00045FE002001F042FE8B2001F03FFE00203B
:1048F00001F03CFE992001F039FE002001F036FE67
:10490000A82001F033FE002001F030FEB92001F0B4
:104910002DFE002001F02AFEC42001F027FE002019
:1049200001F024FECA2001F021FE002001F01EFE4D
:10493000D22001F01BFE002001F018FED82001F06B
:1049400015FE002001F012FEE02001F00FFE002015
:1049500001F00CFEF32001F009FE002001F006FE3C
:10496000E22001F00FFE052001F000FE002001F022
:10497000FDFD0B2001F0FAFD002001F0F7FD1B20EA
:1049800001F0F4FD002001F0F1FD342001F0EEFD16
:10499000002001F0EBFD442001F0E8FD002001F0D3
:1049A000E5FD4F2001F0E2FD002001F0DFFD612078
:1049B00001F0DCFD002001F0D9FD792001F0D6FDE9
:1049C000002001F0D3FD882001F0D0FD002001F08F
:1049D000CDFD972001F0CAFD002001F0C7FDA62003
:1049E00001F0C4FD002001F0C1FDB72001F0BEFDC3
:1049F000002001F0BBFDC22001F0B8FD002001F055
:104A0000B5FDC72001F0B2FD002001F0AFFDD120BF
:104A100001F0ACFD002001F0A9FDD62001F0A6FDBB
:104A2000002001F0A3FDDD2001F0A0FD002001F039
:104A30009DFDF32001F09AFD002001F097FDE32099
:104A400001F0A0FD052001F091FD00E00AE3002047
:104A500001F08CFD0A2001F089FD002001F086FDA7
:104A60001C2001F083FD002001F080FD332001F0C7
:104A70007DFD002001F07AFD442001F077FD00204B
:104A800001F074FD502001F071FD002001F06EFD79
:104A9000622001F06BFD002001F068FD782001F03C
:104AA00065FD002001F062FD882001F05FFD00201F
:104AB00001F05CFD972001F059FD002001F056FD4A
:104AC000A62001F053FD002001F050FDB72001F0B9
:104AD0004DFD002001F04AFDC22001F047FD0020FD
:104AE00001F044FDC72001F041FD002001F03EFD32
:104AF000D12001F03BFD002001F038FDD52001F070
:104B000035FD002001F032FDDD2001F02FFD0020F9
:104B100001F02CFDF32001F029FD002001F026FD1D
:104B2000E42001F02FFD012001F020FD002001F024
:104B30001DFD012001F01AFD002001F017FD0220EB
:104B400001F014FD002001F011FD2A2001F00EFDFE
:104B5000002001F00BFD3C2001F008FD002001F0D9
:104B600005FD4B2001F002FD002001F0FFFC5D205F
:104B700001F0FCFC002001F0F9FC742001F0F6FCCF
:104B8000002001F0F3FC842001F0F0FC002001F093
:104B9000EDFC932001F0EAFC002001F0E7FCA220EC
:104BA00001F0E4FC002001F0E1FCB32001F0DEFCA8
:104BB000002001F0DBFCBE2001F0D8FC002001F059
:104BC000D5FCC42001F0D2FC002001F0CFFCCD20A8
:104BD00001F0CCFC002001F0C9FCD32001F0C6FCA0
:104BE000002001F0C3FCDD2001F0C0FC002001F03A
:104BF000BDFCF32001F0BAFC002001F0B7FCE52079
:104C000001F0C0FC002001F0B1FC002001F0AEFC7E
:104C1000002001F0ABFC002001F0A8FC022001F014
:104C2000A5FC002001F0A2FC292001F09FFC00203F
:104C300001F09CFC3C2001F099FC002001F096FC66
:104C40004B2001F093FC002001F090FC5D2001F06E
:104C50008DFC002001F08AFC742001F087FC00200C
:104C600001F084FC842001F081FC002001F07EFC36
:104C7000932001F07BFC002001F078FCA22001F0E1
:104C800075FC002001F072FCB32001F06FFC0020E5
:104C900001F06CFCBE2001F069FC002001F066FC14
:104CA000C42001F063FC002001F060FCCD2001F085
:104CB0005DFC002001F05AFCD32001F057FC0020DD
:104CC00001F054FCDC2001F051FC002001F04EFC0E
:104CD000F32001F04BFC002001F048FCE62001F03D
:104CE00051FC112001F042FC002001F03FFC342077
:104CF00001F03CFC002001F039FC562001F036FCAC
:104D0000002001F033FC762001F030FC002001F09F
:104D10002DFC772001F02AFC002001F027FC662002
:104D200001F024FC002001F021FC882001F01EFC91
:104D3000002001F01BFC992001F018FC002001F07C
:104D400015FCBB2001F012FC002001F00FFC9920A3
:104D500001F00CFC002001F009FC662001F006FCCB
:104D6000002001F003FC552001F000FC002001F0C0
:104D7000FDFB552001F0FAFB002001F0F7FB452078
:104D800001F0F4FB002001F0F1FB432001F0EEFB09
:104D9000002001F0EBFB442001F0E8FB002001F0D3
:104DA000E5FBE72001F0EEFB322001F0DFFB002005
:104DB00001F0DCFB552001F0D9FB002001F0D6FB0F
:104DC000762001F0D3FB002001F0D0FB662001F03B
:104DD000CDFB002001F0CAFB672001F0C7FB0020DB
:104DE00001F0C4FB672001F0C1FB002001F0BEFB15
:104DF000872001F0BBFB002001F0B8FB992001F0F7
:104E0000B5FB002001F0B2FBBB2001F0AFFB00209E
:104E100001F0ACFB992001F0A9FB002001F0A6FBFA
:104E2000772001F0A3FB002001F0A0FB442001F05B
:104E30009DFB002001F09AFB562001F097FB00201B
:104E400001F094FB232001F091FB002001F08EFB88
:104E5000332001F08BFB002001F088FB452001F09E
:104E600085FB002001F082FBE82001F08BFB002095
:104E700001F07CFB002001F079FB992001F076FB2A
:104E8000002001F073FB872001F070FB002001F08F
:104E90006DFB882001F06AFB002001F067FB7720A2
:104EA00001F064FB002001F061FB662001F05EFB75
:104EB000002001F05BFB882001F058FB002001F08E
:104EC00055FBAA2001F052FB002001F04FFBBB2054
:104ED00001F04CFB002001F049FB992001F046FB5A
:104EE000002001F043FB662001F040FB002001F0B0
:104EF0003DFB552001F03AFB002001F037FB552027
:104F000001F034FB002001F031FB442001F02EFBC6
:104F1000002001F02BFB442001F028FB002001F0D1
:104F200025FB552001F022FB002001F01FFBE920AA
:104F300001F028FBAA2001F019FB002001F016FB6C
:104F4000002001F013FB002001F010FB002001F015
:104F500019FBAA2001F00AFBCF2001F013FB00206F
:104F600001F004FB002001F001FB002001F0FEFA3B
:104F7000002001F0FBFA002001F0F8FA002001F017
:104F8000F5FA002001F0F2FA002001F0EFFA00201B
:104F900001F0ECFA002001F0E9FA002001F0E6FA55
:104FA000002001F0E3FA002001F0E0FA002001F017
:104FB000DDFA002001F0DAFA002001F0D7FA002033
:104FC00001F0D4FAF02001F0DDFA002001F0CEFA71
:104FD000502001F0CBFA002001F0C8FA002001F0C7
:104FE000C5FA002001F0C2FAF32001F0CBFA00204C
:104FF00001F0BCFAF92001F0C5FA062001F0B6FA7A
:10500000102001F0B3FA292001F0B0FA002001F0DD
:10501000ADFA3A2001F0B6FA552001F0A7FA1120B6
:1050200001F0B0FA642002F087FB292001F0AAFA0F
:10503000352001F0A7FA002001F098FA512001F084
:10504000A1FAFF2001F092FA532001F09BFA2C20E4
:1050500001F08CFA552001F095FA822001F086FAD1
:105060002C20FDE3A0427DD14FF47043552118461A
:1050700001F09EFA4FF20107AA21384601F098FA92
:105080005221781C01F094FA0821B81C01F090FA22
:105090000121F81C01F08CFA0D214FF4304001F091
:1050A00087FA0D214BF2010001F082FA0D214BF23B
:1050B000020001F07DFA34214FF4364001F078FA15
:1050C00034214BF2016001F073FA34214BF202609B
:1050D00001F06EFA0D214FF4314001F069FA0D2113
:1050E0004BF2011001F064FA0D214BF2021001F0B5
:1050F0005FFA34214FF4374001F05AFA34214BF271
:10510000017001F055FA34214BF2027001F050FAAF
:1051100000214FF4324001F04BFA00214BF2012004
:1051200001F046FA00214BF2022001F041FA24215D
:105130004FF4384001F03CFA24214BF6010001F015
:1051400037FA24214BF6020001F032FA01214FF424
:105150003F4001F02DFA0F214FF4334001F028FABF
:105160000F2100E0FEE34BF2013001F021FA0F21A4
:105170004BF2023001F01CFA34214FF4394001F0B7
:1051800017FA34214BF6011001F012FA34214BF6D4
:10519000021001F00DFA08214FF4354001F008FA31
:1051A00008214BF2015001F003FA08214BF20250A2
:1051B00001F0FEF903214FF4424001F0F9F92421F6
:1051C0004FF43A4001F0F4F924214BF6012001F0AC
:1051D000EFF924214BF6022001F0EAF900214FF407
:1051E0003C4001F0E5F978214BF6014001F0E0F98F
:1051F00000214BF6024001F0DBF900214FF43D4065
:1052000001F0D6F978214BF6015001F0D1F90021D7
:105210004BF6025001F0CCF900214FF43E4001F072
:10522000C7F964214BF6016001F0C2F900214FF487
:10523000514001F0BDF933214DF2011001F0B8F9F0
:1052400000214DF2021001F0B3F934214DF20310A8
:1052500001F0AEF900214DF2041001F0A9F93A2154
:105260004DF2051001F0A4F900214DF2061001F0F5
:105270009FF94A214DF2071001F09AF900214DF2F1
:10528000081001F095F95C214DF2091001F090F938
:1052900000214DF20A1001F08BF981214DF20B1023
:1052A00001F086F900214DF20C1001F081F9A621E0
:1052B0004DF20D1001F07CF900214DF20E1001F0BD
:1052C00077F9E5214DF20F1001F072F901214DF24D
:1052D000101001F06DF913214DF2111001F068F971
:1052E00001214DF2121001F063F954214DF2131017
:1052F00001F05EF901214DF2141001F059F98221FB
:105300004DF2151001F054F901214DF2161001F083
:105310004FF9CA214DF2171001F04AF902214DF25E
:10532000181001F045F900214DF2191001F040F973
:1053300002214DF21A1001F03BF901214DF21B1030
:1053400001F036F902214DF21C1001F031F934213F
:105350004DF21D1001F02CF902214DF21E1001F04A
:1053600027F967214DF21F1001F022F902214DF2B9
:10537000201001F01DF984214DF2211001F018F9DF
:1053800002214DF2221001F013F9A4214DF2231055
:1053900001F00EF902214DF2241001F009F9B721B4
:1053A0004DF2251001F004F902214DF2261001F012
:1053B000FFF8CF214DF2271001F0FAF802214DF24B
:1053C000281001F0F5F8DE214DF2291001F0F0F877
:1053D00002214DF22A1001F0EBF8F2214DF22B10D0
:1053E00001F0E6F802214DF22C1001F0E1F8FE2167
:1053F0004DF22D1001F0DCF803214DF22E1001F0DA
:10540000D7F810214DF22F1001F0D2F803214DF200
:10541000301001F0CDF833214DF2311001F0C8F811
:1054200003214DF2321001F0C3F86D214DF233101B
:1054300001F0BEF800214FF4524001F0B9F83321D9
:105440004DF2012001F0B4F800214DF2022001F0EC
:10545000AFF834214DF2032001F0AAF800214DF2FB
:10546000042001F0A5F83A214DF2052001F0A0F842
:1054700000214DF2062001F09BF84A214DF2072051
:1054800001F096F800214DF2082001F091F85C211E
:105490004DF2092001F08CF800214DF20A2001F0B4
:1054A00087F881214DF20B2001F082F800214DF2A6
:1054B0000C2001F07DF8A6214DF20D2001F078F8C6
:1054C00000214DF20E2001F073F8E5214DF20F207E
:1054D00001F06EF801214DF2102001F069F813215E
:1054E0004DF2112001F064F801214DF2122001F07B
:1054F0005FF854214DF2132001F05AF801214DF2CA
:10550000142001F055F882214DF2152001F050F8D9
:1055100001214DF2162001F04BF8CA214DF217205F
:1055200001F046F802214DF2182001F041F8002167
:105530004DF2192001F03CF802214DF21A2001F041
:1055400037F801214DF21B2001F032F802214DF213
:105550001C2001F02DF834214DF21D2001F028F817
:1055600002214DF21E2001F023F867214DF21F2089
:1055700001F01EF802214DF2202001F019F88421DB
:105580004DF2212001F014F802214DF2222001F009
:105590000FF8A4214DF2232001F00AF802214DF268
:1055A000242001F005F8B7214DF2252001F000F884
:1055B00002214DF2262000F0FBFFCF214DF22720E3
:1055C00000F0F6FF02214DF2282000F0F1FFDE216D
:1055D0004DF2292000F0ECFF02214DF22A2000F0CC
:1055E000E7FFF2214DF22B2000F0E2FF02214DF205
:1055F0002C2000F0DDFFFE214DF22D2000F0D8FF21
:1056000003214DF22E2000F0D3FF10214DF22F2068
:1056100000F0CEFF03214DF2302000F0C9FF33210E
:105620004DF2312000F0C4FF03214DF2322000F092
:10563000BFFF6D214DF2332000F0BAFF00214FF47F
:10564000534000F0B5FF33214DF2013000F0B0FFC0
:1056500000214DF2023000F0ABFF34214DF2033057
:1056600000F0A6FF00214DF2043000F0A1FF3A2126
:105670004DF2053000F09CFF00214DF2063000F0A5
:1056800097FF4A214DF2073000F092FF00214DF2C2
:10569000083000F08DFF5C214DF2093000F088FFEA
:1056A00000214DF20A3000F083FF81214DF20B30D2
:1056B00000F07EFF00214DF20C3000F079FFA621B2
:1056C0004DF20D3000F074FF00214DF20E3000F06D
:1056D0006FFFE5214DF20F3000F06AFF01214DF21E
:1056E000103000F065FF13214DF2113000F060FF23
:1056F00001214DF2123000F05BFF54214DF21330C6
:1057000000F056FF01214DF2143000F051FF8221CC
:105710004DF2153000F04CFF01214DF2163000F033
:1057200047FFCA214DF2173000F042FF02214DF22F
:10573000183000F03DFF00214DF2193000F038FF25
:1057400002214DF21A3000F033FF01214DF21B30DF
:1057500000F02EFF02214DF21C3000F029FF342111
:105760004DF21D3000F024FF02214DF21E3000F0FA
:105770001FFF67214DF21F3000F01AFF02214DF28A
:10578000203000F015FF84214DF2213000F010FF91
:1057900002214DF2223000F00BFFA4214DF2233004
:1057A00000F006FF02214DF2243000F001FFB72186
:1057B0004DF2253000F0FCFE02214DF2263000F0C3
:1057C000F7FECF214DF2273000F0F2FE02214DF21C
:1057D000283000F0EDFEDE214DF2293000F0E8FE29
:1057E00002214DF22A3000F0E3FEF2214DF22B307F
:1057F00000F0DEFE02214DF22C3000F0D9FEFE2139
:105800004DF22D3000F0D4FE03214DF22E3000F089
:10581000CFFE10214DF22F3000F0CAFE03214DF2D1
:10582000303000F0C5FE33214DF2313000F0C0FEC3
:1058300003214DF2323000F0BBFE6D214DF23330CA
:1058400000F0B6FE00214FF4544000F0B1FE3321C9
:105850004DF2014000F0ACFE00214DF2024000E0AC
:105860007CE300F0A5FE34214DF2034000F0A0FEE1
:1058700000214DF2044000F09BFE3A214DF205401C
:1058800000F096FE00214DF2064000F091FE4A2104
:105890004DF2074000F08CFE00214DF2084000F070
:1058A00087FE5C214DF2094000F082FE00214DF29E
:1058B0000A4000F07DFE81214DF20B4000F078FEA1
:1058C00000214DF20C4000F073FEA6214DF20D4078
:1058D00000F06EFE00214DF20E4000F069FEE52161
:1058E0004DF20F4000F064FE01214DF2104000F037
:1058F0005FFE13214DF2114000F05AFE01214DF2DE
:10590000124000F055FE54214DF2134000F050FEBD
:1059100001214DF2144000F04BFE82214DF2154062
:1059200000F046FE01214DF2164000F041FECA2172
:105930004DF2174000F03CFE02214DF2184000F0FD
:1059400037FE00214DF2194000F032FE02214DF2E7
:105950001A4000F02DFE01214DF21B4000F028FE00
:10596000022100E0FDE24DF21C4000F021FE342156
:105970004DF21D4000F01CFE02214DF21E4000F0D1
:1059800017FE67214DF21F4000F012FE02214DF27A
:10599000204000F00DFE84214DF2214000F008FE71
:1059A00002214DF2224000F003FEA4214DF22340DB
:1059B00000F0FEFD02214DF2244000F0F9FDB72178
:1059C0004DF2254000F0F4FD02214DF2264000F09A
:1059D000EFFDCF214DF2274000F0EAFD02214DF20C
:1059E000284000F0E5FDDE214DF2294000F0E0FD09
:1059F00002214DF22A4000F0DBFDF2214DF22B4056
:105A000000F0D6FD02214DF22C4000F0D1FDFE2128
:105A10004DF22D4000F0CCFD03214DF22E4000F060
:105A2000C7FD10214DF22F4000F0C2FD03214DF2C1
:105A3000304000F0BDFD33214DF2314000F0B8FDA3
:105A400003214DF2324000F0B3FD6D214DF23340A1
:105A500000F0AEFD00214FF4554000F0A9FD3321C8
:105A60004DF2015000F0A4FD00214DF2025000F073
:105A70009FFD34214DF2035000F09AFD00214DF2BC
:105A8000045000F095FD3A214DF2055000F090FDD4
:105A900000214DF2065000F08BFD4A214DF20750D7
:105AA00000F086FD00214DF2085000F081FD5C21E0
:105AB0004DF2095000F07CFD00214DF20A5000F03B
:105AC00077FD81214DF20B5000F072FD00214DF267
:105AD0000C5000F06DFDA6214DF20D5000F068FD58
